:0400000072EF15F096
:0F060000002532660A00696E66006E616E0000AA
:10061000000E0001816F30C084F031C085F032C01F
:1006200086F033C087F087BF1AEF03F018EF03F0AE
:100630002EEF03F0010E816F84C001F085C002F03F
:1006400086C003F087C004F023EC15F001C084F0ED
:1006500002C085F003C086F004C087F0000E0001E0
:10066000836F000E826F5AC071F05BC072F08151CF
:10067000D8B43DEF03F03FEF03F053EF03F08151A7
:10068000D8A445EF03F047EF03F04DEF03F0000E61
:10069000676F2B0E666F51EF03F0000E676F2D0E24
:1006A000666F66C081F084C001F085C002F086C02C
:1006B00003F087C004F003EC12F001040210D8A488
:1006C00064EF03F066EF03F099EF03F0000181514E
:1006D000D8B46DEF03F06FEF03F078EF03F081C053
:1006E00000F17107D8A07207000E836F010E826FB0
:1006F000000E8225016E010E8321026E060E036E2E
:10070000060E046EE4EC14F00001FD0E7127FF0EDE
:1007100072232EC011F02FC012F0000E136E010EC6
:10072000146E71C015F072C016F04AEC13F004EFAD
:1007300008F084C001F085C002F086C003F087C0D5
:1007400004F003EC12F001500210D8A4AAEF03F059
:10075000ACEF03F0CCEF03F000018151D8B4B3EF5C
:1007600003F0B5EF03F0BEEF03F081C000F17107B5
:10077000D8A07207000E836F010E826F000E8225D3
:10078000016E010E8321026E0A0E036E060E046EC8
:10079000E4EC14F084EF03F0000E0001886F000E0B
:1007A000896F800E8A6F3F0E8B6F000E706F000E88
:1007B0006F6F84C001F085C002F086C003F087C06F
:1007C00004F0000E056E000E066E000E076E000EA1
:1007D000086E9FEC13F0D8B0F0EF03F0F2EF03F0E7
:1007E000D1EF04F0FFEF03F073C088F074C089F01C
:1007F00075C08AF076C08BF000016F4B702B88C0FB
:1008000001F089C002F08AC003F08BC004F0000E32
:10081000056E000E066E200E076E410E086E65EC2A
:100820000AF001C073F002C074F003C075F004C098
:1008300076F000017351845D016E74518559026E2A
:1008400075518659036E76518759046EF4EC13F096
:1008500004BE36EF04F004500310021009E1020E4A
:10086000015CD8A036EF04F038EF04F0F4EF03F0A9
:1008700073C01AF074C01BF075C01CF076C01DF078
:1008800084C01EF085C01FF086C020F087C021F014
:1008900081EC11F0D8A04FEF04F051EF04F0F4EF29
:1008A00003F000018851845D016E89518559026E03
:1008B0008A518659036E8B518759046EF4EC13F0FC
:1008C00004BE70EF04F004500310021007E1020EA2
:1008D000015CD8B06EEF04F070EF04F0B8EF04F0F4
:1008E00088C084F089C085F08AC086F08BC087F00C
:1008F000D1EF04F088C001F089C002F08AC003F093
:100900008BC004F0000E056E000E066E200E076E02
:10091000410E086E7AEC0CF001C088F002C089F03C
:1009200003C08AF004C08BF000016F07D8A07007E5
:100930008851845D016E89518559026E8A518659AC
:10094000036E8B518759046EF4EC13F004BEB6EFBE
:1009500004F004500310021007E1020E015CD8B04D
:10096000B4EF04F0B6EF04F0B8EF04F070EF04F069
:1009700084C01AF085C01BF086C01CF087C01DF033
:1009800088C01EF089C01FF08AC020F08BC021F003
:1009900081EC11F0D8A0CFEF04F0D1EF04F07AEFA2
:1009A00004F034C069F069C06AF05DBEDAEF04F0AB
:1009B000DCEF04F0E2EF04F05CC062F05DC063F0D5
:1009C000E7EF04F0000E0001636F060E626F62C075
:1009D0006DF063C06EF000016D4B6E2B660E6A19F0
:1009E000D8A4F5EF04F0F7EF04F017EF05F070BFAF
:1009F000FEEF04F0FCEF04F00AEF05F0000E886F44
:100A0000000E896F800E8A6F3F0E8B6F000E706F25
:100A1000000E6F6F670E6919D8B411EF05F013EF70
:100A200005F017EF05F06F516D2770516E23000E22
:100A3000786F000E776F84C079F085C07AF086C039
:100A40007BF087C07CF088C073F089C074F08AC0E6
:100A500075F08BC076F0A8EF05F079C001F07AC090
:100A600002F07BC003F07CC004F088C005F089C0B0
:100A700006F08AC007F08BC008F07AEC0CF001C0D9
:100A80001AF002C01BF003C01CF004C01DF06CEC97
:100A90000FF01AC07DF01BC07EF01CC07FF01DC09F
:100AA00080F07DC001F07EC002F07FC003F080C006
:100AB00004F0FEEC10F001C06BF002C06CF079C0E5
:100AC0001AF07AC01BF07BC01CF07CC01DF07DC00A
:100AD00005F07EC006F07FC007F080C008F088C037
:100AE00001F089C002F08AC003F08BC004F065EC0D
:100AF0000AF001C01EF002C01FF003C020F004C0C5
:100B000021F09FEC14F01AC079F01BC07AF01CC0E1
:100B10007BF01DC07CF088C001F089C002F08AC063
:100B200003F08BC004F0000E056E000E066E200E62
:100B3000076E410E086E7AEC0CF001C088F002C01E
:100B400089F003C08AF004C08BF00001774B782B4A
:100B50006D51775D7851800A356E6E51800A355837
:100B6000D8A0B5EF05F0B7EF05F02DEF05F088C080
:100B700001F089C002F08AC003F08BC004F0000EBF
:100B8000056E000E066EA00E076E400E086E65EC38
:100B90000AF001C07DF002C07EF003C07FF004C007
:100BA00080F079C01AF07AC01BF07BC01CF07CC0CA
:100BB0001DF07DC01EF07EC01FF07FC020F080C001
:100BC00021F081EC11F0D8B0E8EF05F0EAEF05F084
:100BD000F5EF05F0000E00017D6F000E7E6F000E38
:100BE0007F6F000E806F1EEF06F079C001F07AC0B3
:100BF00002F07BC003F07CC004F07DC005F07EC035
:100C000006F07FC007F080C008F09FEC13F0D8A07A
:100C10000CEF06F00EEF06F01EEF06F000016BB1D0
:100C200014EF06F016EF06F01EEF06F0000E7D6FD3
:100C3000000E7E6F000E7F6F000E806F84C001F08B
:100C400085C002F086C003F087C004F07DC005F0C7
:100C50007EC006F07FC007F080C008F005EC08F009
:100C600001C079F002C07AF003C07BF004C07CF0D0
:100C700079C01AF07AC01BF07BC01CF07CC01DF05C
:100C8000000E056E000E066E200E076E410E086EF9
:100C900073C001F074C002F075C003F076C004F0B8
:100CA00065EC0AF001C01EF002C01FF003C020F086
:100CB00004C021F081EC11F0D8A061EF06F063EFE1
:100CC00006F08CEF06F000016F4B702B73C001F043
:100CD00074C002F075C003F076C004F0000E056E1B
:100CE000000E066E200E076E410E086E65EC0AF0CF
:100CF00001C073F002C074F003C075F004C076F058
:100D0000660E00016A19D8A488EF06F08AEF06F093
:100D10008CEF06F06D4B6E2B73C088F074C089F0B9
:100D200075C08AF076C08BF06FC060F070C061F063
:100D3000000E0001686F000E656F000E646F000EFC
:100D4000786F000E776F8AEF07F079C001F07AC0F4
:100D500002F07BC003F07CC004F088C005F089C0BD
:100D600006F08AC007F08BC008F07AEC0CF001C0E6
:100D70001AF002C01BF003C01CF004C01DF06CECA4
:100D80000FF01AC07DF01BC07EF01CC07FF01DC0AC
:100D900080F07DC001F07EC002F07FC003F080C013
:100DA00004F0FEEC10F002BEE1EF06F0025007E1A5
:100DB0000A0E015CD8B0DFEF06F0E1EF06F0F1EFCC
:100DC00006F07DC001F07EC002F07FC003F080C05D
:100DD00004F0FEEC10F001C06BF002C06CF0F6EF16
:100DE00006F0000E00016C6F090E6B6F0001685178
:100DF000D8A4FDEF06F0FFEF06F027EF07F061BF84
:100E000006EF07F004EF07F027EF07F0000E82254A
:100E1000D96E010E8321DA6E2E0EDF6E824B832B8C
:100E20007107D8A07207010E686F27EF07F0000E58
:100E30008225D96E010E8321DA6E300EDF6E824B71
:100E4000832B7107D8A072076407D8A06507645187
:100E50006511D8A42EEF07F030EF07F017EF07F079
:100E6000000E8225D96E010E8321DA6E6B51300F90
:100E7000DF6E824B832B7107D8A0720779C01AF0FE
:100E80007AC01BF07BC01CF07CC01DF07DC005F05B
:100E90007EC006F07FC007F080C008F088C001F077
:100EA00089C002F08AC003F08BC004F065EC0AF040
:100EB00001C01EF002C01FF003C020F004C021F0EA
:100EC0009FEC14F01AC079F01BC07AF01CC07BF0C4
:100ED0001DC07CF088C001F089C002F08AC003F018
:100EE0008BC004F0000E056E000E066E200E076E1D
:100EF000410E086E7AEC0CF001C088F002C089F057
:100F000003C08AF004C08BF000016007D8A061071D
:100F1000774B782B6D51775D7851800A356E6E5125
:100F2000800A3558D8B097EF07F099EF07F0A7EF90
:100F300007F083BFA5EF07F0835109E14B0E825DF7
:100F4000D8A0A5EF07F0A7EF07F0A5EF06F0000E79
:100F5000786F4F0E776F000E7725D96E010E7821CE
:100F6000DA6EDF6A000E356E010E366E8251355E26
:100F70008351365A77513524016E78513620026EEE
:100F8000000E036E010E046E82C005F083C006F0F1
:100F900077EC14F000018251775D826F83517859AC
:100FA000836F8151D8A4D7EF07F0DAEF07F0010E75
:100FB000DBEF07F0000E776F786B8151D8B4E3EF69
:100FC00007F0E5EF07F0F0EF07F08207D8A08307FE
:100FD000000E8225D96E010E8321DA6E81C0DFFFFB
:100FE0007751715F7851725B2EC011F02FC012F0F3
:100FF000000E8225136E010E8321146E71C015F050
:1010000072C016F04AEC13F012000450800B0D6E03
:10101000045004240F6E03AE10EF08F012EF08F036
:1010200013EF08F00F800F50D8B419EF08F01BEF42
:1010300008F030EF08F00F28D8A421EF08F023EFD4
:1010400008F02BEF08F0000E016E000E026E000E8D
:10105000036E000E046E038E000E046E38EF08F06F
:10106000000E016E000E026E000E036E000E046E86
:101070000850800B0E6E0D500E18D8B442EF08F0D9
:1010800044EF08F045EF08F00D8C085008240E6E70
:1010900007AE4DEF08F04FEF08F050EF08F00E806C
:1010A0000E50D8B456EF08F058EF08F06DEF08F086
:1010B0000E28D8A45EEF08F060EF08F068EF08F0A3
:1010C000000E056E000E066E000E076E000E086E16
:1010D000078E000E086E75EF08F0000E056E000E0C
:1010E000066E000E076E000E086E0F500E5CD8B034
:1010F0007CEF08F07EEF08F0A5EF08F00DAC83EF71
:1011000008F085EF08F087EF08F0800E0D1A0FC089
:1011100010F00EC00FF010C00EF001C010F005C0AE
:1011200001F010C005F002C010F006C002F010C0BF
:1011300006F003C010F007C003F010C007F004C0B1
:1011400010F008C004F010C008F0000E106E0F5030
:101150000EC009F00A6A095E000E0A5A0ABEBAEF0A
:1011600008F00A5009E11A0E095CD8A0BAEF08F09D
:10117000BCEF08F0F3EF08F0015002100310041068
:10118000D8A4C5EF08F0C8EF08F0010EC9EF08F0C9
:10119000000E106E000E016E000E026E000E036E49
:1011A000000E046E0EC00FF0FCEF08F010A0DBEF95
:1011B00008F0DDEF08F0E3EF08F0D89010300109F7
:1011C000106EE5EF08F0D890103201A0EAEF08F0B9
:1011D000ECEF08F0EDEF08F0108E04340432033227
:1011E000023201320F2A0E500F5CD8A0FAEF08F03D
:1011F000FCEF08F0D6EF08F00DBC01EF09F003EFAB
:1012000009F043EF09F00F50D8A409EF09F00BEFF4
:1012100009F015EF09F0000E016E000E026E000ECF
:10122000036E000E046E64EF0AF0055001260650AE
:101230000222075003220850042204A022EF09F0E2
:1012400024EF09F0D0EF09F010A029EF09F02BEFFF
:1012500009F031EF09F0D89010300109106E33EF2A
:1012600009F0D890103201A038EF09F03AEF09F0F8
:101270003BEF09F0108E04340432033202320132A3
:101280000F2AD0EF09F00550015C065002580750B4
:1012900003580450800A096E0850800A0958D8B0D3
:1012A00054EF09F056EF09F081EF09F00150055CA9
:1012B000096E025006580A6E035007580B6E045010
:1012C00008580C6EFF0E0924016EFF0E0A20026EF4
:1012D000FF0E0B20036EFF0E0C20046E800E0D1A05
:1012E000106C1050D8A477EF09F079EF09F089EF6E
:1012F00009F0010E0126000E02220322042289EFCA
:1013000009F00550015E0650025A0750035A085072
:10131000045A0150021003100410D8A492EF09F0EF
:1013200094EF09F0C9EF09F01050D8A49AEF09F032
:101330009CEF09F0C9EF09F0000E016E000E026E7D
:10134000000E036E000E046E64EF0AF0D8900136B2
:1013500002360336043610AEB0EF09F0B2EF09F0F2
:10136000B3EF09F0018010A0B8EF09F0BAEF09F06F
:10137000BEEF09F0D8801036C0EF09F0D8901036D3
:101380000F50D8B4C6EF09F0C8EF09F0C9EF09F063
:101390000F0603AECEEF09F0D0EF09F0A6EF09F08B
:1013A000000E0E6E10AED7EF09F0D9EF09F0F1EF95
:1013B00009F010C009F07F0E0916D8B4E2EF09F069
:1013C000E4EF09F0E8EF09F0010E0E6EF1EF09F01D
:1013D00001A0EDEF09F0EFEF09F0F1EF09F0E4EF14
:1013E00009F00E50D8B4F7EF09F0F9EF09F024EF47
:1013F0000AF0010E0126000E02220322042204A09C
:1014000004EF0AF006EF0AF024EF0AF001C009F039
:1014100002C00AF003C00BF004C00CF00C340C3214
:101420000B320A32093209C001F00AC002F00BC0C7
:1014300003F00CC004F00F28D8B421EF0AF023EF1A
:101440000AF024EF0AF00F2A0F28D8B42AEF0AF086
:101450002CEF0AF034EF0AF00F50D8A432EF0AF064
:1014600034EF0AF046EF0AF0000E016E000E026E35
:10147000000E036E000E046E0F50D8A442EF0AF067
:1014800044EF0AF046EF0AF0000E0D6E0FA04BEF8E
:101490000AF04DEF0AF050EF0AF0038E51EF0AF018
:1014A000039ED8900F30046E0DAE59EF0AF05BEF3B
:1014B0000AF05CEF0AF0048E01C001F002C002F0F5
:1014C00003C003F004C004F012000450800B0D6E42
:1014D00004500424136E03AE70EF0AF072EF0AF0AA
:1014E00073EF0AF013801350D8B479EF0AF07BEF52
:1014F0000AF08EEF0AF01328D8A481EF0AF083EFE8
:101500000AF08BEF0AF0000E016E000E026E000E64
:10151000036E000E046E038E96EF0AF0000E016E4D
:10152000000E026E000E036E000E046E0850800B5B
:101530000D1A08500824126E07AEA1EF0AF0A3EFAF
:101540000AF0A4EF0AF012801250D8B4AAEF0AF001
:10155000ACEF0AF0BFEF0AF01228D8A4B2EF0AF0FD
:10156000B4EF0AF0BCEF0AF0000E056E000E066E36
:10157000000E076E000E086E078EC7EF0AF0000E11
:10158000056E000E066E000E076E000E086E1250FD
:10159000D8B4CDEF0AF0CFEF0AF0D7EF0AF013502E
:1015A000D8A4D5EF0AF0D7EF0AF0E1EF0AF0000E69
:1015B000016E000E026E000E036E000E046E79EFD7
:1015C0000CF007500102F3CF18F0F4CF19F01850C7
:1015D0000E6E0F6A106A116A1950146E156A166A37
:1015E000176A06500202F3CF18F0F4CF19F0185022
:1015F0000E26000E0F221022112219501426000E62
:1016000015221622172205500302F3CF18F0F4CF4B
:1016100019F018500E26000E0F2210221122195018
:101620001426000E15221622172210C011F00FC02A
:1016300010F00EC00FF00E6A05500202F3CF18F042
:10164000F4CF19F018500E2619500F22000E102258
:10165000000E112206500102F3CF18F0F4CF19F05A
:1016600018500E2619500F22000E1022000E1122C3
:1016700010C011F00FC010F00EC00FF00E6A055030
:101680000102F3CF18F0F4CF19F018500E261950BC
:101690000F22000E1022000E112207500202F3CF7B
:1016A00018F0F4CF19F01850142619501522000E16
:1016B0001622000E172206500302F3CF18F0F4CFC3
:1016C00019F01850142619501522000E1622000E7B
:1016D000172207500302F3CF18F0F4CF19F0185077
:1016E000096E19500A6E0B6A0C6A0BC00CF00AC026
:1016F0000BF009C00AF0096A095014260A50152295
:101700000B5016220C5017220EC009F00FC00AF021
:1017100010C00BF011C00CF0190E94EF0BF0D89024
:101720000C320B320A320932E82E8FEF0BF00950DF
:1017300014260A5015220B5016220C50172210C0E6
:1017400011F00FC010F00EC00FF00E6A125013C04F
:1017500009F00A6A0926000E0A22820E0924186E70
:10176000FF0E0A20196ECAEF0BF0D890143615360A
:101770001636173611AEBFEF0BF0C1EF0BF0C2EF0C
:101780000BF01480D8900E360F361036113618062E
:10179000D8A0190616AECFEF0BF0D1EF0BF0B5EFD6
:1017A0000BF0000E126E11AED8EF0BF0DAEF0BF06B
:1017B000FEEF0BF0FF0E0E14096EFF0E0F140A6EF3
:1017C000FF0E10140B6E7F0E11140C6E09500A10D0
:1017D0000B100C10D8B4EFEF0BF0F1EF0BF0F5EFAE
:1017E0000BF0010E126EFEEF0BF014A0FAEF0BF0EF
:1017F000FCEF0BF0FEEF0BF0F1EF0BF01250D8B452
:1018000004EF0CF006EF0CF02AEF0CF0010E14269A
:10181000000E15221622172217A011EF0CF013EF5D
:101820000CF02AEF0CF014C009F015C00AF016C035
:101830000BF017C00CF00C340C320B320A320932A8
:1018400009C014F00AC015F00BC016F00CC017F058
:10185000184A192A19BE35EF0CF0195008E118285A
:10186000D8A035EF0CF037EF0CF041EF0CF0000E84
:10187000146E000E156E800E166E7F0E176E6FEFD3
:101880000CF019BE4EEF0CF0195006E11804D8B058
:101890004CEF0CF04EEF0CF05AEF0CF0000E146E03
:1018A000000E156E000E166E000E176E000E0D6EF9
:1018B0006FEF0CF018C013F0FF0E1416FF0E151684
:1018C0007F0E1616000E171613A069EF0CF06BEFC3
:1018D0000CF06CEF0CF0168ED8901330176E0D5084
:1018E000171214C001F015C002F016C003F017C0A3
:1018F00004F012000450800B116E04500424186E82
:1019000003AE85EF0CF087EF0CF088EF0CF0188039
:101910001850D8B48EEF0CF090EF0CF0A5EF0CF04F
:101920001828D8A496EF0CF098EF0CF0A0EF0CF06C
:10193000000E016E000E026E000E036E000E046EAD
:10194000038E000E046EADEF0CF0000E016E000E63
:10195000026E000E036E000E046E0850800B111A0A
:1019600008500824196E07AEB8EF0CF0BAEF0CF06F
:10197000BBEF0CF019801950D8B4C1EF0CF0C3EFD5
:101980000CF0D8EF0CF01928D8A4C9EF0CF0CBEF6D
:101990000CF0D3EF0CF0000E056E000E066E000E7C
:1019A000076E000E086E078E000E086EE0EF0CF05A
:1019B000000E056E000E066E000E076E000E086E1D
:1019C0000550061007100810D8A4E9EF0CF0EBEF53
:1019D0000CF003EF0DF0000E016E000E026E000E13
:1019E000036E000E046E800E03127F0E041211505F
:1019F000041201C001F002C002F003C003F004C0F1
:101A000004F046EF0EF01850D8A409EF0DF00BEFDC
:101A10000DF015EF0DF0000E016E000E026E000EBF
:101A2000036E000E046E46EF0EF0195018C009F058
:101A30000A6A095E000E0A5A7F0E0924126E000E11
:101A40000A20136E01C00DF002C00EF003C00FF0AB
:101A500004C010F0000E016E000E026E000E036E48
:101A6000000E046E000E146E000E156E000E166E43
:101A7000000E176E000E196E76EF0DF01950D8B4E7
:101A800044EF0DF046EF0DF05DEF0DF0D8900D3600
:101A90000E360F361036D89001360236033604362D
:101AA00017AE55EF0DF057EF0DF058EF0DF0018028
:101AB000D890143615361636173605500D5C06507C
:101AC0000E5807500F5808501058D8A06AEF0DF064
:101AD0006CEF0DF075EF0DF0178C05500D5E065094
:101AE0000E5A07500F5A0850105A192A190E196425
:101AF0007CEF0DF07EEF0DF03EEF0DF00D500E106F
:101B00000F101010D8B487EF0DF089EF0DF0A1EF92
:101B10000DF01480A1EF0DF0D89001360236033697
:101B2000043617AE96EF0DF098EF0DF099EF0DF02B
:101B30000180D89014361536163617361206D8A0FE
:101B4000130603AEA6EF0DF0A8EF0DF08CEF0DF02D
:101B5000000E196E17AEAFEF0DF0B1EF0DF0D5EF2F
:101B60000DF0FF0E1414096EFF0E15140A6EFF0E11
:101B700016140B6E7F0E17140C6E09500A100B1002
:101B80000C10D8B4C6EF0DF0C8EF0DF0CCEF0DF08F
:101B9000010E196ED5EF0DF001A0D1EF0DF0D3EFCE
:101BA0000DF0D5EF0DF0C8EF0DF01950D8B4DBEF04
:101BB0000DF0DDEF0DF001EF0EF0010E0126000E2D
:101BC00002220322042204A0E8EF0DF0EAEF0DF058
:101BD00001EF0EF001C009F002C00AF003C00BF0E3
:101BE00004C00CF00C340C320B320A32093209C03A
:101BF00001F00AC002F00BC003F00CC004F0124A5E
:101C0000132A13BE0CEF0EF0135008E11228D8A0CF
:101C10000CEF0EF00EEF0EF019EF0EF0000E136E3B
:101C20001268000E016E000E026E000E036E000EB2
:101C3000046E13BE26EF0EF0135006E11204D8B066
:101C400024EF0EF026EF0EF034EF0EF0000E136EC0
:101C5000000E126E000E016E000E026E000E036E7C
:101C6000000E046E000E116E12C018F018A03BEFAB
:101C70000EF03DEF0EF040EF0EF0038E41EF0EF050
:101C8000039ED8901830046EF7EF0CF0120039C0A4
:101C9000D9FF3AC0DAFFDECFF6FFDDCFF7FF08004D
:101CA000F550250AD8A457EF0EF059EF0EF057EF74
:101CB0000FF039C0D9FF3AC0DAFFDE2A000EDD226C
:101CC000000E5B6E000E5A6E5AC05EF05C685D6876
:101CD00039C007F03AC008F03BC009F03CC00AF038
:101CE000E7EC12F007C05AF008C05BF05BBE7DEF76
:101CF0000EF07BEF0EF082EF0EF05E805A6C5B1EF2
:101D0000D8B05B2A39C0D9FF3AC0DAFFDECF44F041
:101D1000DDCF45F044C0F6FF45C0F7FF0800F5CF22
:101D200043F09FEF0EF0444A452AB8EF0EF06C0ED8
:101D3000436EB8EF0EF0000E436EB8EF0EF0435056
:101D40003D6E3E6A3E50000AD8B4A9EF0EF09BEFFC
:101D50000EF03D504C0AD8B493EF0EF02A0AD8B4D6
:101D600097EF0EF00A0AD8B493EF0EF09BEF0EF047
:101D700044C0F6FF45C0F7FF0800F550660AD8A436
:101D8000C4EF0EF0C6EF0EF04EEF0FF0FCEF0EF0CA
:101D90003BC0D9FF3CC0DAFFDFCF3DF0040EDE26AA
:101DA000DFCF3EF0000EDD223DC0D9FF3EC0DAFF9E
:101DB000DECF3FF0DECF40F0DECF41F0DECF42F0AD
:101DC00011EF0FF03BC0D9FF3CC0DAFFDFCF3DF091
:101DD000040EDE26DFCF3EF0000EDD223DC0D9FF2F
:101DE0003EC0DAFFDECF3FF0DECF40F0DECF41F085
:101DF000DECF42F011EF0FF043503D6E3E6A3E5091
:101E0000000AD8B406EF0FF011EF0FF03D504C0A66
:101E1000D8B4E2EF0EF0200AD8B4C8EF0EF011EFFC
:101E20000FF0010E44243D6E000E45203E6E39C079
:101E3000D9FF3AC0DAFF3DC0DEFF3EC0DDFF38EF1C
:101E40000FF037C02EF038C02FF03FC030F040C048
:101E500031F041C032F042C033F044C0F6FF45C01B
:101E6000F7FF0800F5CF34F008EC03F06BEF0FF04C
:101E700044C0F6FF45C0F7FF0800F5503D6E3E6ACE
:101E80003E50000AD8B447EF0FF04EEF0FF03D5030
:101E9000660AD8B421EF0FF04EEF0FF039C0D9FF2A
:101EA0003AC0DAFFDE2A000EDD226BEF0FF039C0F8
:101EB000D9FF3AC0DAFFDECFF6FFDDCFF7FF08002B
:101EC000F550016E026A37C003F038C004F082ECAE
:101ED00012F04EEF0FF01200D8C02AF0D9C02BF04C
:101EE000DAC02CF0DBC02DF01AC02AF01BC02BF09A
:101EF0001CC02CF01DC02DF0810E1E6EFF0E1F6E3B
:101F00002AC020F02BC021F02CC022F02DC023F0DD
:101F1000180E90EF0FF0D890233222322132203267
:101F2000E82E8BEF0FF020501E24286E000E1F208D
:101F3000296E29BEA5EF0FF0295009E1170E285C84
:101F4000D8A0A5EF0FF0A7EF0FF0B1EF0FF01AC078
:101F50001AF01BC01BF01CC01CF01DC01DF074EF5C
:101F600010F029BEB6EF0FF0B8EF0FF028EF10F029
:101F700028C01EF0FF0E1F6EFF0E206E7F0E216E1A
:101F8000000E226E1E66C7EF0FF0CFEF0FF0223467
:101F90002232213220321F321E2EC2EF0FF01FC01C
:101FA00024F020C025F021C026F022C027F02450C4
:101FB0002A141E6E25502B141F6E26502C14206ED2
:101FC00027502D14216E1E501F1020102110D8A450
:101FD000ECEF0FF0EEEF0FF0F0EF0FF0A7EF0FF0D8
:101FE0002AC01EF02BC01FF02CC020F02DC021F005
:101FF000200E00EF10F0D890213220321F321E3216
:10200000E82EFBEF0FF01E501F1020102110D8B447
:102010000CEF10F00EEF10F016EF10F024502A26FF
:1020200025502B2226502C2227502D22241C1E6E98
:10203000251C1F6E261C206E271C216E1E502A1682
:102040001F502B1620502C1621502D166CEF10F01F
:102050002AC01EF02BC01FF02CC020F02DC021F094
:10206000200E38EF10F0D890213220321F321E326D
:10207000E82E33EF10F01E501F1020102110D8A4AE
:1020800044EF10F046EF10F050EF10F0000E2A6E03
:10209000000E2B6E000E2C6E000E2D6E6CEF10F0ED
:1020A000D8902A341E6E2B341F6E2C34206E2D34A3
:1020B000216E1E501F1020102110D8B462EF10F0B6
:1020C00064EF10F06CEF10F0000E2A6E000E2B6E15
:1020D000800E2C6EBF0E2D6E2AC01AF02BC01BF086
:1020E0002CC01CF02DC01DF01200000E0001CE6FA0
:1020F000000ECF6F000ED06F000ED16FA6EC15F062
:10210000000E1A6E000E1B6E000E1C6E400E1D6E31
:10211000CEC01EF0CFC01FF0D0C020F0D1C021F043
:1021200081EC11F0D8B097EF10F099EF10F0A2EF1A
:1021300010F0000E0001CE6F000ECF6F000ED06FBA
:10214000000ED16F9A0E0001926F000E936F010E78
:10215000946F060E956FCEC096F0CFC097F0D0C0AA
:1021600098F0D1C099F027EC14F09A0E016E000E91
:10217000026E3FEC15F0000E0001CD6F000ECC6F2B
:10218000CEEF10F09A0ECC25D96E000ECD21DA6E6E
:10219000DF509BEC15F00001CC4BCD2B9A0E016E5D
:1021A000000E026E3FEC15F001500001CC5D0250B4
:1021B000CD59D8A0DEEF10F0E0EF10F0C2EF10F034
:1021C000CEC001F0CFC002F0D0C003F0D1C004F007
:1021D0000A0E056ED70E066E230E076E3C0E086EB5
:1021E00005EC08F001C0CEF002C0CFF003C0D0F083
:1021F00004C0D1F080EF10F000EF00F0033404349D
:102200000A6E0A50D8A407EF11F009EF11F013EF8E
:1022100011F0000E016E000E026E000E036E000E35
:10222000046E80EF11F001C005F002C006F003C09B
:1022300007F004C008F0200E23EF11F0D890083208
:10224000073206320532E82E1EEF11F00550096EF6
:10225000038EFF0E0116FF0E0216FF0E0316000E70
:102260000416960E0A5E0ABE3AEF11F038EF11F02E
:1022700050EF11F00A50800A970FD8B042EF11F0DA
:1022800044EF11F046EF11F009EF11F0D89004324D
:102290000332023201320A3E46EF11F068EF11F0CC
:1022A0001F0E0A6456EF11F058EF11F060EF11F0B5
:1022B00009EF11F0D89001360236033604360A06CB
:1022C0000A50D8A466EF11F068EF11F05AEF11F040
:1022D0000950D8B46EEF11F070EF11F078EF11F0F3
:1022E000041E031E021E016C000E022203220422A1
:1022F00001C001F002C002F003C003F004C004F00A
:102300001200000E1A14226E000E1B14236E800E93
:102310001C14246E7F0E1D14256E225023102410D1
:102320002510D8A496EF11F098EF11F0A0EF11F05E
:10233000000E1A6E000E1B6E000E1C6E000E1D6E3F
:10234000000E1E14226E000E1F14236E800E201429
:10235000246E7F0E2114256E225023102410251088
:10236000D8A4B5EF11F0B7EF11F0BFEF11F0000EE8
:102370001E6E000E1F6E000E206E000E216E1DAE32
:10238000C4EF11F0C6EF11F0CFEF11F01A6C1B1E65
:10239000D8B01B2A1C1ED8B01C2A800E1D5621AE98
:1023A000D4EF11F0D6EF11F0DFEF11F01E6C1F1E0D
:1023B000D8B01F2A201ED8B0202A800E2156000E29
:1023C0001A1A000E1B1A000E1C1A800E1D1A000E7F
:1023D0001E1A000E1F1A000E201A800E211A1E50FF
:1023E0001A5C1F501B5820501C5821501D58D8B043
:1023F000FCEF11F0FEEF11F001EF12F0D89002EFB8
:1024000012F0D880120056C00BF057C00CF058C024
:102410000DF059C00EF001C00BF002C00CF003C06B
:102420000DF004C00EF00BC005F00CC006F00DC09E
:1024300007F00EC008F0180E23EF12F0D890083203
:10244000073206320532E82E1EEF12F00550096EF3
:102450000A6A09500A10D8A430EF12F032EF12F0D5
:1024600052EF12F0D8900B34056E0C34066E0D341A
:10247000076E0E34086E0550061007100810D8A419
:1024800044EF12F046EF12F04CEF12F0000E026E25
:10249000020E016E81EF12F0000E026E030E016E4D
:1024A00081EF12F009280A10D8A459EF12F05BEF5F
:1024B00012F07DEF12F00BC005F00CC006F00DC05D
:1024C00007F00EC008F0090ED8900536063607361C
:1024D0000836E82E64EF12F00550061007100810B9
:1024E000D8B475EF12F078EF12F0010E79EF12F018
:1024F000000E016E026A81EF12F0000E026E040EF1
:10250000016E120003500410D8B489EF12F08BEF63
:1025100012F094EF12F003500410D8A492EF12F0CE
:1025200094EF12F099EF12F00150C1EC15F0E6EFC4
:1025300012F020EE0AF00350D9260450DA22DE50C1
:10254000DE10D8B4A6EF12F0A8EF12F0C3EF12F02D
:1025500020EE0AF00350D9260450DA2210EE03F0E0
:102560000350E1260450E222DE50E65CE650800A89
:10257000096EDE50800A0958D8B0C1EF12F0C3EFDF
:1025800012F0E6EF12F020EE03F00350D9260450CB
:10259000DA22DECF05F0DDCF06F003C0D9FF04C09C
:1025A000DAFFDECF07F0DDCF08F005500724D96E43
:1025B00006500820DA6E01C0DFFF20EE03F0035062
:1025C000D9260450DA22DE2A000EDD221200000E87
:1025D0000F6E000E0E6E07C0D9FF08C0DAFFDECF07
:1025E000F6FFDDCFF7FF0800F5502A0AD8A4FBEF6D
:1025F00012F0FDEF12F031EF13F007C0D9FF08C061
:10260000DAFFDE2A000EDD2209C0D9FF0AC0DAFF98
:10261000DFCF0BF0020EDE26DFCF0CF0000EDD2246
:102620000BC0D9FF0CC0DAFFDECF0EF0DDCF0FF00C
:1026300045EF13F00EC001F00FC002F0000E046E63
:102640000A0E036E88EC15F00D5001240E6E000E7C
:1026500002200F6E07C0D9FF08C0DAFFDE2A000E85
:10266000DD2207C0D9FF08C0DAFFDECFF6FFDDCFDD
:10267000F7FF0800F550D00F0D6E090E0D6443EF03
:1026800013F045EF13F01AEF13F00EC007F00FC070
:1026900008F012005EA04FEF13F051EF13F05BEF64
:1026A00013F013C00AF014C00BF011C00CF012C0EC
:1026B0000DF0C2EC14F016BE60EF13F062EF13F0F1
:1026C00068EF13F015C01AF016C01BF06CEF13F092
:1026D000000E1B6E000E1A6E000E196E000E186EA4
:1026E0007EEF13F0000E026E200E016E11C003F09B
:1026F00012C004F082EC12F0184A192A1A50185C21
:102700001950800A176E1B50800A1758D8A08BEFFB
:1027100013F08DEF13F072EF13F05EB092EF13F041
:1027200094EF13F09EEF13F013C00AF014C00BF0F7
:1027300011C00CF012C00DF0C2EC14F01200000E2B
:102740000114096E000E02140A6E800E03140B6E43
:102750007F0E04140C6E09500A100B100C10D8A434
:10276000B4EF13F0B6EF13F0BEEF13F0000E016EEE
:10277000000E026E000E036E000E046E000E0514B5
:10278000096E000E06140A6E800E07140B6E7F0E83
:1027900008140C6E09500A100B100C10D8A4D3EFBB
:1027A00013F0D5EF13F0DDEF13F0000E056E000E01
:1027B000066E000E076E000E086E055001180FE140
:1027C000065002180CE10750031809E108500418DC
:1027D000D8B4EDEF13F0EFEF13F0F2EF13F0D89061
:1027E000F3EF13F0D880120004BE03EF14F004508E
:1027F0000310021006E10104D8B001EF14F003EF5A
:1028000014F01EEF14F001C005F002C006F003C082
:1028100007F004C008F0051E061E071E081E052A44
:10282000000E06220722082205C001F006C002F0B1
:1028300007C003F008C004F026EF14F001C001F057
:1028400002C002F003C003F004C004F01200960EB0
:10285000486E000E496E92C04AF093C04BF0000ED5
:102860004E6E000E4D6E000E556E000E546E4A0EEA
:1028700000018C6F000E8D6F94C08EF095C08FF0AC
:10288000480E906F000E916F4FEC14F04D50000108
:102890009225D96E4E509321DA6EDF6A12008EC0F7
:1028A00046F08FC047F063EF14F08CC037F08DC056
:1028B00038F0460E396E000E3A6E90C03BF091C073
:1028C0003CF047EC0EF046C0F6FF47C0F7FF0800AB
:1028D000F5500009D8A46FEF14F071EF14F055EF24
:1028E00014F0000E00018D6F000E8C6F120003C0FB
:1028F00009F004C00AF001C007F002C008F091EF2F
:1029000014F009C0D9FF0AC0DAFFDF500B6E094A84
:102910000A2A07C0D9FF08C0DAFF0BC0DFFF074A49
:10292000082A0506D8A00606052806E10628D8A428
:102930009CEF14F09EEF14F081EF14F01200000EE3
:102940001E1A000E1F1A000E201A800E211A1AC01D
:1029500001F01BC002F01CC003F01DC004F01EC03B
:1029600005F01FC006F020C007F021C008F005ECFC
:1029700008F001C01AF002C01BF003C01CF004C034
:102980001DF01200000E106E000E0F6ED3EF14F04B
:102990000EC001F0026A0CC003F00DC004F082EC1E
:1029A00012F00F4A102A0F500A24D96E10500B2033
:1029B000DA6EDF500E6E0E50D8A4E1EF14F0E3EFA4
:1029C00014F0C8EF14F0120003C005F004C006F0C4
:1029D00001C007F002C008F005C0F6FF06C0F7FF0F
:1029E000054A062A07C0D9FF08C0DAFF074A082AA5
:1029F0000800F5CFDFFFDF50D8A401EF15F003EF9B
:102A000015F0ECEF14F01200080EB86E900EAB6EDD
:102A1000240EAC6E670EAF6E000EB06E000E016E2F
:102A2000000E026EB7EC15F0000E016E000E026E85
:102A3000B2EC15F0000E016E000E026EBCEC15F04B
:102A4000000E5F6E12000150021003100410D8B483
:102A50002CEF15F02EEF15F036EF15F0000E011AE1
:102A6000000E021A000E031A800E041A01C001F0B3
:102A700002C002F003C003F004C004F0120001C061
:102A800003F002C004F047EF15F0014A022A01C02A
:102A9000D9FF02C0DAFFDF50D8A451EF15F053EF91
:102AA00015F045EF15F00350015C016E045002581B
:102AB000026E1200000E8D6E000E8C6E000E896E7E
:102AC000000E8A6E000E8B6E070E966E92689368EB
:102AD000BF0E946E95687E681F0E7F6E000E7C6E32
:102AE000F18E120001EE00F0500EEE6AE806FDE1F4
:102AF0000001DB6BDA6BD96BD86B00EE56F00A0E77
:102B0000EE6AE806FDE1000EF86E000175EF10F0C8
:102B100001500302F3CF05F0F4CF06F00150040298
:102B2000F350062602500302F350062605C001F0BA
:102B300006C002F01200016E9EA8A1EF15F0A3EFEF
:102B400015F09CEF15F001C0ADFF12005AEC15F026
:102B5000ADEC15F004EC15F01200500ED36E000E23
:102B60009B6E120001C0D4F002C0D5F0120001C06B
:102B7000D6F002C0D7F0120001C0D2F002C0D3F0EC
:042B8000120012002D
:020000040020DA
:08000000FFFFFFFFFFFFFFFF00
:020000040030CA
:0E000000FF081F1EFF8B85FF0FC00FE00F4093
:00000001FF
