:0400000084EF04F095
:09060000004F4646004F4E000079
:10060A0020EE84F010EE2CF00D0EDBCFE3FFE806AF
:10061A00FCE220EE75F010EE1DF00E0EDBCFE3FFCC
:10062A00E806FCE220EE60F010EE08F0140EDBCFD4
:10063A00E3FFE806FCE206C001F007C002F0050E7F
:10064A00036E060E046EFBEC03F001500210D8A4F0
:10065A0031EF03F033EF03F050EF03F08C80000E1C
:10066A003B6E000E3A6E2C0E3A24D96E000E3B20D9
:10067A00DA6EDF50AEEC04F03A4A3B2A3B5009E10D
:10068A000E0E3A5CD8A04CEF03F04EEF03F038EFB1
:10069A0003F09AEF03F006C001F007C002F0010E62
:1006AA00036E060E046EFBEC03F001500210D8A490
:1006BA0061EF03F063EF03F080EF03F08C90000E1C
:1006CA003D6E000E3C6E1D0E3C24D96E000E3D2080
:1006DA00DA6EDF50AEEC04F03C4A3D2A3D5009E1A7
:1006EA000F0E3C5CD8A07CEF03F07EEF03F068EFBE
:1006FA0003F09AEF03F0000E3F6E000E3E6E080EF6
:10070A003E24D96E000E3F20DA6EDF50AEEC04F0C4
:10071A003E4A3F2A3F5009E1150E3E5CD8A098EFA9
:10072A0003F09AEF03F084EF03F01200B9EC04F03F
:10073A00000E566E9AEC04F0576E0D0E5718D8B488
:10074A00A9EF03F0ABEF03F0BDEF03F00A0E571861
:10075A00D8B4B2EF03F0B4EF03F0BDEF03F0400EEC
:10076A005624D96EDA6A000EDA2257C0DFFF562AFB
:10077A000A0E5664C3EF03F0C5EF03F0C7EF03F0A8
:10078A00000E566E0A0E5718D8A4CEEF03F0D0EF1B
:10079A0003F09FEF03F0400E5624D96EDA6A000E7A
:1007AA00DA22DF6A000E566E400E066E000E076EE3
:1007BA0005EC03F0000E556E000E546E400E5424E4
:1007CA00D96E000E5520DA6EDF6A544A552A555002
:1007DA0009E1140E545CD8A0F5EF03F0F7EF03F02B
:1007EA00E3EF03F09FEF03F000EF00F001EF04F0F6
:1007FA00014A022A034A042A01C0D9FF02C0DAFFC9
:10080A00DF50056E03C0F6FF04C0F7FF0800F5507D
:10081A000518D8A413EF04F015EF04F021EF04F043
:10082A0001C0D9FF02C0DAFFDF50D8A41FEF04F0DD
:10083A0021EF04F0FDEF03F001C0D9FF02C0DAFF97
:10084A00DF50056E03C0F6FF04C0F7FF0800F5503D
:10085A00055C016E026AD8A002061200080EB86E84
:10086A00900EAB6E240EAC6E190EAF6E000EB06E0B
:10087A00000E016E000E026ECAEC04F0000E016E4C
:10088A00000E026EC5EC04F0000E016E000E026E40
:10089A00CFEC04F0000E5E6E1200496E636F727246
:1008AA0065637420636F6D6D616E642E0D0A004F6F
:1008BA004B2E204C4544204F46462E0D0A004F4BE6
:1008CA002C204C4544204F4E2E0D0A00000E8D6EF2
:1008DA00000E8C6E000E896E000E8A6E000E8B6EF4
:1008EA00070E966E92689368BF0E946EFE0E956E12
:1008FA007E681F0E7F6E000E7C6EF18E1200A40EB3
:10090A00F66E080EF76E000EF86E00EE60F010EE4E
:10091A0032F00900F5CFEEFFE550E150FAE15E6AE8
:10092A00000EF86E00019BEF03F09EAA9FEF04F001
:10093A00A1EF04F09AEF04F0000E5E6EABA2A8EFEE
:10094A0004F0AAEF04F0ACEF04F0AB98AB88AE5019
:10095A001200016E9EA8B4EF04F0B6EF04F0AFEFF8
:10096A0004F001C0ADFF12006BEC04F0C0EC04F01F
:10097A0033EC04F01200300ED36E000E9B6E1200A0
:10098A0001C05AF002C05BF0120001C05CF002C064
:0E099A005DF0120001C058F002C059F01200CA
:020000040020DA
:08000000FFFFFFFFFFFFFFFF00
:020000040030CA
:0E000000FF081F1EFF8B85FF0FC00FE00F4093
:00000001FF
